:020000040000FA
:0600000000308A00052813
:080008004B2883160317880141
:1000100089018316031388018316031387170713B7
:1000200007118710831603131930990083160313E1
:10003000243098008316031787018312031390302E
:100040009800831603138C1683120313C0308B00A1
:10005000831203130C309700831203130C309D009E
:10006000831603139B30920083120313FF30950015
:10007000FF309B008312031304309200831203139A
:10008000A401831203132708031D47284128A70151
:10009000630000004128A000030EA1000A08A2008E
:1000A0008A01831203138C1EFC28831203139818F1
:1000B000F928831203131A08A30035302306031905
:1000C000AD28313023060319912832302306031955
:1000D00098283330230603199F2834302306031948
:1000E000A628303023060319B4284130230603190B
:1000F000C028423023060319D228FC288312031398
:10010000240803198A28831203134E3095004E30B9
:100110009B00080083120313FF309500FF309B0003
:10012000080083120313473088007E20E520FC2856
:1001300083120313433088007E20E520FC288312BD
:1001400003132B3088007E20E520FC288312031344
:10015000073088007E20E520FC2883120313273017
:1001600088007E20E520FC288312031395019B0163
:10017000831203138801831203130130A700FC28A4
:1001800083120313A401831203133C3097008312DC
:1001900003133C309D0083120313FF309500FF30A2
:1001A0009B00FC28831203130130A4008312031365
:1001B0000C309700831203130C309D00831203133D
:1001C0004E3095004E309B00FC2883120313240808
:1001D00003190800C020EE20D22008001430A5002A
:1001E000C830A60000000000A60BF228A50BF028DE
:1001F000080018121816FC2822088A00210E830015
:06020000A00E200E090013
:04020600003400348C
:00000001FF
